{
  "contractName": "EthGallery",
  "abi": [
    {
      "constant": false,
      "inputs": [
        {
          "name": "name",
          "type": "string"
        }
      ],
      "name": "initializePlayer",
      "outputs": [
        {
          "name": "_player",
          "type": "tuple",
          "components": [
            {
              "name": "name",
              "type": "string"
            }
          ]
        }
      ],
      "payable": false,
      "stateMutability": "nonpayable",
      "type": "function"
    },
    {
      "inputs": [
        {
          "name": "",
          "type": "address"
        }
      ],
      "payable": false,
      "stateMutability": "view",
      "type": "function",
      "constant": true,
      "name": "players",
      "outputs": [
        {
          "name": "name",
          "type": "string"
        }
      ]
    },
    {
      "constant": false,
      "inputs": [],
      "name": "test",
      "outputs": [
        {
          "name": "_int",
          "type": "uint256"
        }
      ],
      "payable": false,
      "stateMutability": "nonpayable",
      "type": "function"
    },
    {
      "inputs": [],
      "payable": false,
      "stateMutability": "nonpayable",
      "type": "constructor"
    }
  ],
  "bytecode": "0x6060604052341561000f57600080fd5b6103748061001e6000396000f300606060405260043610610057576000357c0100000000000000000000000000000000000000000000000000000000900463ffffffff1680630a20f9f71461005c578063e2eb41ff146100cd578063f8a8fd6d1461019c575b600080fd5b341561006757600080fd5b6100b7600480803590602001908201803590602001908080601f016020809104026020016040519081016040528093929190818152602001838380828437820191505050505050919050506101c5565b6040518082815260200191505060405180910390f35b34156100d857600080fd5b610104600480803573ffffffffffffffffffffffffffffffffffffffff1690602001909190505061024c565b604051808060200182810382528381815460018160011615610100020316600290048152602001915080546001816001161561010002031660029004801561018d5780601f106101625761010080835404028352916020019161018d565b820191906000526020600020905b81548152906001019060200180831161017057829003601f168201915b50509250505060405180910390f35b34156101a757600080fd5b6101af610269565b6040518082815260200191505060405180910390f35b6101cd610275565b6101d5610275565b602060405190810160405280848152509050816000803373ffffffffffffffffffffffffffffffffffffffff1673ffffffffffffffffffffffffffffffffffffffff168152602001908152602001600020600082015181600001908051906020019061024292919061028f565b5090505050919050565b600060205280600052604060002060009150905080600001905081565b60006007905080905090565b60206040519081016040528061028961030f565b81525090565b828054600181600116156101000203166002900490600052602060002090601f016020900481019282601f106102d057805160ff19168380011785556102fe565b828001600101855582156102fe579182015b828111156102fd5782518255916020019190600101906102e2565b5b50905061030b9190610323565b5090565b602060405190810160405280600081525090565b61034591905b80821115610341576000816000905550600101610329565b5090565b905600a165627a7a72305820da8b8273c217aad74cd96c27ac8e7b1227591f3bcd30a659df507dbee94634810029",
  "source": "pragma solidity ^0.4.18;\n\n/// @title TBD.\ncontract EthGallery {\n  struct Player {\n    string name;\n  }\n\n  mapping(address => Player) public players;\n\n  function EthGallery() {}\n\n  function initializePlayer(string name) returns (Player _player) {\n    Player memory player = Player({\n      name: name\n    });\n\n    players[msg.sender] = _player;\n  }\n\n  function test() returns (uint256 _int) {\n    _int = 7;\n\n    return _int;\n  }\n}\n",
  "sourcePath": "/Users/tomselvi/Work/eth.gallery/src/contract/contracts/EthGallery.sol",
  "compiler": {
    "name": "solc",
    "version": "0.4.18+commit.9cf6e910.Emscripten.clang"
  },
  "schemaVersion": "1.0.1",
  "updatedAt": "2017-12-08T09:44:33.199Z"
}